{
  "contractName": "patientdata",
  "abi": [
    {
      "constant": false,
      "inputs": [
        {
          "internalType": "string",
          "name": "regid",
          "type": "string"
        },
        {
          "internalType": "uint256",
          "name": "reading1",
          "type": "uint256"
        },
        {
          "internalType": "uint256",
          "name": "reading2",
          "type": "uint256"
        },
        {
          "internalType": "uint256",
          "name": "reading3",
          "type": "uint256"
        },
        {
          "internalType": "uint256",
          "name": "reading4",
          "type": "uint256"
        },
        {
          "internalType": "uint256",
          "name": "reading5",
          "type": "uint256"
        },
        {
          "internalType": "uint256",
          "name": "reading6",
          "type": "uint256"
        }
      ],
      "name": "SetPatientInfo",
      "outputs": [],
      "payable": false,
      "stateMutability": "nonpayable",
      "type": "function"
    },
    {
      "constant": true,
      "inputs": [
        {
          "internalType": "string",
          "name": "regid",
          "type": "string"
        }
      ],
      "name": "GetUserInfo",
      "outputs": [
        {
          "internalType": "uint256",
          "name": "",
          "type": "uint256"
        },
        {
          "internalType": "uint256",
          "name": "",
          "type": "uint256"
        },
        {
          "internalType": "uint256",
          "name": "",
          "type": "uint256"
        },
        {
          "internalType": "uint256",
          "name": "",
          "type": "uint256"
        },
        {
          "internalType": "uint256",
          "name": "",
          "type": "uint256"
        },
        {
          "internalType": "uint256",
          "name": "",
          "type": "uint256"
        }
      ],
      "payable": false,
      "stateMutability": "view",
      "type": "function"
    }
  ],
  "bytecode": "0x608060405234801561001057600080fd5b506107b4806100206000396000f3fe608060405234801561001057600080fd5b50600436106100365760003560e01c8063015c3bfa1461003b5780634d9ab81e1461012d575b600080fd5b6100f46004803603602081101561005157600080fd5b810190808035906020019064010000000081111561006e57600080fd5b82018360208201111561008057600080fd5b803590602001918460018302840111640100000000831117156100a257600080fd5b91908080601f016020809104026020016040519081016040528093929190818152602001838380828437600081840152601f19601f820116905080830192505050505050509192919290505050610224565b60405180878152602001868152602001858152602001848152602001838152602001828152602001965050505050505060405180910390f35b610222600480360360e081101561014357600080fd5b810190808035906020019064010000000081111561016057600080fd5b82018360208201111561017257600080fd5b8035906020019184600183028401116401000000008311171561019457600080fd5b91908080601f016020809104026020016040519081016040528093929190818152602001838380828437600081840152601f19601f8201169050808301925050505050505091929192908035906020019092919080359060200190929190803590602001909291908035906020019092919080359060200190929190803590602001909291905050506104d0565b005b6000806000806000806000876040518082805190602001908083835b602083106102635780518252602082019150602081019050602083039250610240565b6001836020036101000a0380198251168184511680821785525050505050509050019150509081526020016040518091039020600001546000886040518082805190602001908083835b602083106102d057805182526020820191506020810190506020830392506102ad565b6001836020036101000a0380198251168184511680821785525050505050509050019150509081526020016040518091039020600101546000896040518082805190602001908083835b6020831061033d578051825260208201915060208101905060208303925061031a565b6001836020036101000a03801982511681845116808217855250505050505090500191505090815260200160405180910390206002015460008a6040518082805190602001908083835b602083106103aa5780518252602082019150602081019050602083039250610387565b6001836020036101000a03801982511681845116808217855250505050505090500191505090815260200160405180910390206003015460008b6040518082805190602001908083835b6020831061041757805182526020820191506020810190506020830392506103f4565b6001836020036101000a03801982511681845116808217855250505050505090500191505090815260200160405180910390206004015460008c6040518082805190602001908083835b602083106104845780518252602082019150602081019050602083039250610461565b6001836020036101000a03801982511681845116808217855250505050505090500191505090815260200160405180910390206005015495509550955095509550955091939550919395565b856000886040518082805190602001908083835b6020831061050757805182526020820191506020810190506020830392506104e4565b6001836020036101000a038019825116818451168082178552505050505050905001915050908152602001604051809103902060000181905550846000886040518082805190602001908083835b602083106105785780518252602082019150602081019050602083039250610555565b6001836020036101000a038019825116818451168082178552505050505050905001915050908152602001604051809103902060010181905550836000886040518082805190602001908083835b602083106105e957805182526020820191506020810190506020830392506105c6565b6001836020036101000a038019825116818451168082178552505050505050905001915050908152602001604051809103902060020181905550826000886040518082805190602001908083835b6020831061065a5780518252602082019150602081019050602083039250610637565b6001836020036101000a038019825116818451168082178552505050505050905001915050908152602001604051809103902060030181905550816000886040518082805190602001908083835b602083106106cb57805182526020820191506020810190506020830392506106a8565b6001836020036101000a038019825116818451168082178552505050505050905001915050908152602001604051809103902060040181905550806000886040518082805190602001908083835b6020831061073c5780518252602082019150602081019050602083039250610719565b6001836020036101000a0380198251168184511680821785525050505050509050019150509081526020016040518091039020600501819055505050505050505056fea265627a7a7231582034d791acd9408ba7ce6cb404e09789556a04b71e4e2d2d655c45e19dc195857064736f6c63430005100032",
  "source": "// SPDX-License-Identifier: MIT\r\npragma solidity >=0.4.22 <0.9.0;\r\ncontract patientdata{\r\n    struct bloodglucose {\r\n        uint reading1;\r\n        uint reading2;\r\n        uint reading3;\r\n        uint reading4;\r\n        uint reading5;\r\n        uint reading6;\r\n    }\r\n    mapping(string =>bloodglucose) Allpatients;\r\n    function SetPatientInfo(string memory regid,uint reading1,uint reading2,uint reading3,uint reading4,uint reading5,uint reading6) public\r\n    {\r\n        Allpatients[regid].reading1=reading1;\r\n        Allpatients[regid].reading2=reading2;\r\n        Allpatients[regid].reading3=reading3;\r\n        Allpatients[regid].reading4=reading4;\r\n        Allpatients[regid].reading5=reading5;\r\n        Allpatients[regid].reading6=reading6;\r\n    }\r\n    \r\n    function GetUserInfo(string memory regid) public view returns(uint,uint,uint,uint,uint,uint)\r\n    {\r\n        return(Allpatients[regid].reading1,Allpatients[regid].reading2,Allpatients[regid].reading3,Allpatients[regid].reading4,Allpatients[regid].reading5,Allpatients[regid].reading6);\r\n    }\r\n}  ",
  "sourcePath": "C:\\Users\\Technocrats\\Desktop\\Web\\project\\contracts\\contract.sol",
  "compiler": {
    "name": "solc",
    "version": "0.5.16+commit.9c3226ce.Emscripten.clang"
  },
  "schemaVersion": "3.4.3",
  "updatedAt": "2021-08-17T16:43:23.159Z",
  "networkType": "ethereum",
  "devdoc": {
    "methods": {}
  },
  "userdoc": {
    "methods": {}
  }
}